:020000040000FA
:060000000A128A11FC2F18
:100F1C0083160313880183160317880189012A306D
:100F2C00F1008D30F000F00B992FF10B992F9E2FC3
:100F3C0083160313871718128312031318138316BF
:100F4C000313181183160317871119308316031313
:100F5C0099008312031398171816D12F3F3088006D
:100F6C00D12F06308800D12F5B308800D12F4F3025
:100F7C008800D12F66308800D12F6D308800D12F9A
:100F8C007D308800D12F07308800D12F7F3088002A
:100F9C00D12F6F3088001A08F000F1017108003A67
:100FAC000319D92FD12F7008003A0319B42F0A3A1C
:100FBC000319B72F1E3A0319BA2F0A3A0319BD2F7A
:100FCC00363A0319C02F1A3A0319C32F0E3A0319D4
:100FDC00C62F7A3A0319C92F163A0319CC2F0A3A9D
:100FEC000319CF2FD12F0A128A11002883010A125C
:040FFC008A118E2F99
:02400E00F12897
:00000001FF
