:020000040000FA
:060000000A128A11FC2F18
:100EE00001308316031386008801831603178801D7
:100EF00089012A30F1008D30F000F00B7D2FF10BCD
:100F00007D2F822F83120313860183160313071389
:100F10001812181318118316031787111930831626
:100F2000031399008312031398178316031398165B
:100F30008030831203130602031C9F2FA02FF92F6A
:100F4000D12F99013F308800D12F0A309900063007
:100F50008800D12F143099005B308800D12F1E30CB
:100F600099004F308800D12F2830990066308800D2
:100F7000D12F323099006D308800D12F3C3099004C
:100F80007D308800D12F4630990007308800D12F5E
:100F9000503099007F308800D12F5A3099006F303F
:100FA00088000608F000F1017108003A0319D92FF2
:100FB000D12F7008003A0319A12F013A0319A52F68
:100FC000033A0319AA2F013A0319AF2F073A03195D
:100FD000B42F013A0319B92F033A0319BE2F013A6E
:100FE0000319C32F0F3A0319C82F013A0319CD2F44
:100FF000D12F0A128A11002883010A128A11702F38
:02400E00F12897
:00000001FF
