:020000040000FA
:060000000A128A11FC2F18
:100EEE0001308316031386008801831603178801C9
:100EFE0089012A30F1008D30F000F00B842FF10BB8
:100F0E00842F892F8312031386018316031307136D
:100F1E001812181318118316031787111930831618
:100F2E00031399008312031398178316031398164D
:100F3E00D02F99013F308800D02F0A30990006300B
:100F4E008800D02F143099005B308800D02F1E30CF
:100F5E0099004F308800D02F2830990066308800D5
:100F6E00D02F323099006D308800D02F3C30990050
:100F7E007D308800D02F4630990007308800D02F62
:100F8E00503099007F308800D02F5A3099006F3042
:100F9E00880083120608F000F1017108003A031967
:100FAE00D92FD02F7008003A0319A02F013A031938
:100FBE00A42F033A0319A92F013A0319AE2F073AAA
:100FCE000319B32F013A0319B82F033A0319BD2F92
:100FDE00013A0319C22F0F3A0319C72F013A031909
:100FEE00CC2FD02F0A128A11002883010A128A11DF
:020FFE00772F4B
:02400E00F12897
:00000001FF
